S11380008E00FFBD81B07F00007F00017F00107FE4
S113801000117F00127F00137F0020863F97009697
S113802000813F27FA813D272CD613260897137C1D
S113803000017E801BD612260897127C00017E80E8
S11380401BD611260897117C00017E801B97107C9B
S113805000017E801B96018103271D8102272B814D
S1138060012738D613C11E273C864D9714BD81F7CE
S11380705AC13027307E8069961197109612971155
S1138080961397127F00137E80A59612971096136D
S113809097117F00127F00137E80AE961397107F96
S11380A000137E80B7D612C1302703BD8161D6117B
S11380B0C1302703BD8112D610C1302703BD80C350
S11380C07E800696108134273A2519813927048148
S11380D035242086499714BD81F786589714BD81AD
S11380E0F77E811186499714BD81F75AC130272143
S11380F07E80E486569714BD81F7C005C13022E422
S11381007E811186499714BD81F786569714BD81E7
S1138110F73996118134273A251981392704813595
S1138120242086589714BD81F786439714BD81F7A0
S11381307E816086589714BD81F75AC13027217E0D
S11381408133864C9714BD81F7C005C13022E47E8B
S1138150816086589714BD81F7864C9714BD81F7CA
S11381603996128134273A25198139270481352417
S11381702086439714BD81F7864D9714BD81F77E01
S113818081AF86439714BD81F75AC13027217E8180
S11381908286449714BD81F7C005C13022E47E81F4
S11381A0AF86439714BD81F786449714BD81F73990
S11381B08600B7100186FFB710038600B71002CC03
S11381C0302CB7102BF7102D8600B7102C86FEB775
S11381D010098604B7103C86000639CE102EB6105E
S11381E02E860AB7102F1F0080FCB6102E860DB7FE
S11381F0102F1F0080FC39CE102EB6102E9614B707
S10A8200102F1F0080FC3960
S10EF10036B6102EB6102F9700323BDD
S105FFD6F10034
S105FFFE80007D
S9030000FC
