S11380008E00FFBD82317F00007F00017F00027F70
S113801000107F00117F00127F00137F00207F007B
S1138020217F00227F00237F0024CE000018CE0091
S113803000BD825C863F97009600813F27FABD828F
S1138040C3D623C101270FBD8298D624C1012703BB
S1138050BD82817E8151CE0003A710097C00028677
S11380603F97009600813F27FA813D2724D602C11D
S1138070042718BD82C3D621C1002609A710097C94
S113808000027E805FBD82817E8151BD826A7E81D5
S113809051CE0000960281042306BD826A7E81517E
S11380A09602810327368102275581012771961391
S11380B0A7809612A7819611A7829610A783863D62
S11380C0A78496024C9702DE01D613C11E27678649
S11380D04DBD82D75AC130275D7E80CF863DA783B0
S11380E096119710A78296129711A781961397124B
S11380F0A7807F001396024C9702DE017E813686AC
S11381003DA78296129710A78196139711A7807F97
S113811000127F001396024C9702DE017E813F8697
S11381203DA78196139710A7807F001396024C9762
S113813002DE017E8148D612C1302703BD81EED60E
S113814011C1302703BD81ABD610C1302703BD81D7
S113815068863F97009600813F27FA814F27009653
S113816000814B26F07E8006961081342732251537
S1138170813927048135241A8649BD82D78658BDA2
S113818082D77E81AA8649BD82D75AC130271B7EF9
S113819081858656BD82D7C005C13022E87E81AA7A
S11381A08649BD82D78656BD82D739961181342738
S11381B0322515813927048135241A8658BD82D782
S11381C08643BD82D77E81ED8658BD82D75AC130A1
S11381D0271B7E81C8864CBD82D7C005C13022E8EA
S11381E07E81ED8658BD82D7864CBD82D7399612E2
S11381F0813427322515813927048135241A864391
S1138200BD82D7864DBD82D77E82308643BD82D75C
S11382105AC130271B7E820B8644BD82D7C005C15C
S11382203022E87E82308643BD82D78644BD82D721
S1138230398600B7100186FFB710038600B7100215
S1138240CC302CB7102BF7102D8600B7102C86FEDF
S1138250B710098604B7103C860006398600A7804B
S1138260088C002026F6CE000039CE104F18CE0020
S113827000A600812627090818A78018087E8271A5
S113828039CE106718CE0000A600812627090818E9
S1138290A78018087E8288398149271B81562717B1
S11382A081582713814C270F8143270B81442707CB
S11382B0814D27037E82BEC601D7247E82C2C601B9
S11382C0D722398130250B81392207C601D7237E75
S10E82D082D6C601D72139A7800839E7
S10EF10036B6102EB6102F9700323BDD
S113104F4E556D65726F2066756572612064656CAF
S113105F206C696D6974652653696D626F6C6F20BE
S10C106F696E76416C69646F2618
S105FFD6F10034
S105FFFE80007D
S9030000FC
