S11380008E00FFBD83107F00007F00017F00027F90
S113801000107F00117F00127F00137F002C7F006F
S11380202D7F002E7F002F7F00207F00217F0022E4
S11380307F00237F00247F00257F00267F00277F89
S113804000287F00297F002A7F002BCE000018CE55
S11380500000BD833B863F97009600813F27FABD11
S113806083ADD623C101274DBD8382D624C1012708
S113807003BD836BCE0170A700087C0002863F9786
S1138080009600813F27FA813D2718D602C1212797
S113809059BD8382D622C100264AA700087C00026B
S11380A07E807DCE0000960281212306BD83547E0E
S11380B081B07E81CDCE0003A710097C0002863FEB
S11380C097009600813F27FA813D2724D602C104F8
S11380D02718BD83ADD621C1002609A710097C004D
S11380E0027E80BEBD836B7E81B0BD83547E81B031
S11380F0CE0000960281042306BD83547E81B0968F
S1138100028103273681022755810127719613A71F
S1138110809612A7819611A7829610A783863DA701
S11381208496024C9702DE01D613C11E2767864D42
S1138130BD83C15AC130275D7E812E863DA78396BB
S1138140119710A78296129711A78196139712A7D9
S1138150807F001396024C9702DE017E8195863D56
S1138160A78296129710A78196139711A7807F0074
S1138170127F001396024C9702DE017E819E863D9B
S1138180A78196139710A7807F001396024C97023D
S1138190DE017E81A7D612C1302703BD82CDD61160
S11381A0C1302703BD828AD610C1302703BD824760
S11381B0863F97009600813F27FA814F270096005B
S11381C0814B26F07E80067E80EA7E80E4CE0170BC
S11381D018CE0000C600A60018A780085C1808D1B5
S11381E00223F31809863D18A7807C0002CC017095
S11381F0D30183000218CE00008FA600814D271BF7
S11382008144271A81432716814C27128158270E4F
S11382108156270A814927067E82277E81FAD62C39
S11382205CD72C097E81FADE01D62FCB30E780089B
S1138230D62ECB30E78008D62DCB30E78008D62C5D
S1138240CB30E7807E81B0961081342732251581AA
S11382503927048135241A8649BD83C18658BD83D4
S1138260C17E82898649BD83C15AC130271B7E8263
S1138270648656BD83C1C005C13022E87E828986EA
S113828049BD83C18656BD83C139961181342732D5
S11382902515813927048135241A8658BD83C18662
S11382A043BD83C17E82CC8658BD83C15AC1302769
S11382B01B7E82A7864CBD83C1C005C13022E87EE7
S11382C082CC8658BD83C1864CBD83C13996128148
S11382D03427322515813927048135241A8643BD74
S11382E083C1864DBD83C17E830F8643BD83C15A3E
S11382F0C130271B7E82EA8644BD83C1C005C130DC
S113830022E87E830F8643BD83C18644BD83C13981
S11383108600B7100186FFB710038600B71002CCA1
S1138320302CB7102BF7102D8600B7102C86FEB713
S113833010098604B7103C860006398600A7800819
S11383408C002026F6CE0170A700088C019F26F829
S1138350CE000039CE104F18CE0000A6008126278B
S1138360090818A78018087E835B39CE106718CED9
S11383700000A600812627090818A78018087E8314
S113838072398149271B8156271781582713814C3D
S1138390270F8143270B81442707814D27037E83C1
S11383A0A8C601D7247E83ACC601D72239813025E3
S11383B00B81392207C601D7237E83C0C601D7218A
S10883C039A780083913
S10EF10036B6102EB6102F9700323BDD
S113104F4E556D65726F2066756572612064656CAF
S113105F206C696D6974652653696D626F6C6F20BE
S10C106F696E76416C69646F2618
S105FFD6F10034
S105FFFE80007D
S9030000FC
