S11380008E00FFBD84067F00007F00017F00027F99
S113801000107F00117F00127F00137F002C7F006F
S11380202D7F002E7F002F7F00207F00217F0022E4
S11380307F00237F00247F00257F00267F00277F89
S113804000287F00297F002A7F002BCE000018CE55
S11380500000BD8431863F97009600813F27FABD1A
S113806084A3D623C101274DBD8478D624C101271A
S113807003BD8461CE0170A700087C0002863F978F
S1138080009600813F27FA813D2718D602C1212797
S113809059BD8478D622C100264AA700087C000274
S11380A07E807DCE0000960281212306BD844A7E17
S11380B081B07E81CDCE0003A710097C0002863FEB
S11380C097009600813F27FA813D2724D602C104F8
S11380D02718BD84A3D621C1002609A710097C0056
S11380E0027E80BEBD84617E81B0BD844A7E81B043
S11380F0CE0000960281042306BD844A7E81B09698
S1138100028103273681022755810127719613A71F
S1138110809612A7819611A7829610A783863DA701
S11381208496024C9702DE01D613C11E2767864D42
S1138130BD84B75AC130275D7E812E863DA78396C4
S1138140119710A78296129711A78196139712A7D9
S1138150807F001396024C9702DE017E8195863D56
S1138160A78296129710A78196139711A7807F0074
S1138170127F001396024C9702DE017E819E863D9B
S1138180A78196139710A7807F001396024C97023D
S1138190DE017E81A7D612C1302703BD83C3D61169
S11381A0C1302703BD8380D610C1302703BD833D72
S11381B0863F97009600813F27FA814F270096005B
S11381C0814B26F07E80067E80EA7E80E4CE0170BC
S11381D018CE0000C600A60018A780085C1808D1B5
S11381E00223F31809863D18A7807C0002CC017095
S11381F0D30183000218CE00008F7E81FDA600818A
S1138200492610D62BC10324C17C002B7C002C09E9
S11382107E81FDA60081562620D62CC10322ABD632
S11382202CCB05D72C09A6008149260D7C002BD622
S11382302BC10122957A002C09A60081582631D63B
S113824029C10324287C00297C002D09A60081492A
S113825026E7D629C1012615D62C26117A002D7AB7
S11382600029C609D72C097E82397E81C77E81CA3E
S1138270A600814C2620D62DC10322F1D62DCB0594
S1138280D72D09A6008158260D7C0029D629C101C5
S113829022DB7A002D09A6008143262BD627C103B1
S11382A024CB7C00277C002E09A600815826E7D623
S11382B027C10126B8D62D26B47A002E7A0029C605
S11382C009D72D097E8296A60081442620D62EC188
S11382D003229AD62ECB05D72E09A600814326E782
S11382E07C0027D627C101221A7A002E09A6008114
S11382F04D2613D625C109240A7C00257C002F09AC
S11383007E82ED7E81CAA60081FF27037E8303DE81
S113831001D62F260AD62E260DD62D26102715D6A1
S11383202FCB30E78008D62ECB30E78008D62DCB74
S113833030E78008D62CCB30E7807E81B096108160
S11383403427322515813927048135241A8649BDFD
S113835084B78658BD84B77E837F8649BD84B75A67
S1138360C130271B7E835A8656BD84B7C005C130F1
S113837022E87E837F8649BD84B78656BD84B7399B
S11383809611813427322515813927048135241A21
S11383908658BD84B78643BD84B77E83C28658BDE4
S11383A084B75AC130271B7E839D864CBD84B7C0D9
S11383B005C13022E87E83C28658BD84B7864CBD91
S11383C084B73996128134273225158139270481DF
S11383D035241A8643BD84B7864DBD84B77E840593
S11383E08643BD84B75AC130271B7E83E08644BDD3
S11383F084B7C005C13022E87E84058643BD84B7B6
S11384008644BD84B7398600B7100186FFB71003D0
S11384108600B71002CC302CB7102BF7102D860035
S1138420B7102C86FEB710098604B7103C860006E8
S1138430398600A780088C002026F6CE0170A7009C
S1138440088C019F26F8CE000039CE104F18CE00BC
S113845000A600812627090818A78018087E8451E1
S113846039CE106718CE0000A60081262709081807
S1138470A78018087E8468398149271B81562717ED
S113848081582713814C270F8143270B81442707E9
S1138490814D27037E849EC601D7247E84A2C60113
S11384A0D722398130250B81392207C601D7237E93
S10E84B084B6C601D72139A780083923
S10EF10036B6102EB6102F9700323BDD
S113104F4E556D65726F2066756572612064656CAF
S113105F206C696D6974652653696D626F6C6F20BE
S10C106F696E76416C69646F2618
S105FFD6F10034
S105FFFE80007D
S9030000FC
